:100000000C9462000C948A000C948A000C948A0070
:100010000C948A000C948A000C948A000C948A0038
:100020000C948A000C948A000C948A000C948A0028
:100030000C948A000C948A000C948A000C948A0018
:100040000C94F7020C948A000C949F030C9479038F
:100050000C948A000C948A000C948A000C948A00F8
:100060000C947B060C948A000000000024002700FA
:100070002A0000000000250028002B0000000000DE
:1000800023002600290004040404040404040202DA
:100090000202020203030303030301020408102007
:1000A0004080010204081020010204081020000012
:1000B0000008000201000003040700000000000027
:1000C0000000B00E11241FBECFEFD8E0DEBFCDBFC1
:1000D00012E0A0E0B1E0EAEEF1E202C005900D927C
:1000E000AC35B107D9F724E0ACE5B2E001C01D9210
:1000F000AA36B207E1F710E0C2E6D0E004C02197CB
:10010000FE010E94E810C136D107C9F70E94810C98
:100110000C94F3100C940000CF92DF92EF92FF92B8
:100120000F931F93CF93DF936C017A018B01C0E093
:10013000D0E0CE15DF0581F0D8016D918D01D6019B
:10014000ED91FC910190F081E02DC6010995892B7C
:1001500011F02196EECF7E01C701DF91CF911F9163
:100160000F91FF90EF90DF90CF900895FC01538D99
:10017000448D252F30E0842F90E0821B930B541781
:1001800010F0CF96089501970895FC01918D828D0E
:10019000981761F0828DDF01A80FB11D5D968C91DB
:1001A000928D9F5F9F73928F90E008958FEF9FEFE6
:1001B0000895FC01918D828D981731F0828DE80FA2
:1001C000F11D858D90E008958FEF9FEF0895FC015C
:1001D000918D228D892F90E0805C9F4F821B910929
:1001E0008F739927089582E293E00E94E70021E04F
:1001F000892B09F420E0822F0895FC01848DDF0112
:10020000A80FB11DA35ABF4F2C91848D90E0019689
:100210008F739927848FA689B7892C93A089B18978
:100220008C91837080648C93938D848D981306C019
:100230000288F389E02D80818F7D80830895EF927D
:10024000FF920F931F93CF93DF93EC0181E0888F90
:100250009B8D8C8D981305C0E889F989808185FD77
:1002600026C0F62E0B8D10E00F5F1F4F0F73112766
:10027000E02E8C8DE8120CC00FB607FCFACFE8898F
:10028000F989808185FFF5CFCE010E94FD00F1CF75
:100290008B8DFE01E80FF11DE35AFF4FF0829FB7EF
:1002A000F8940B8FEA89FB89808180620AC09FB72E
:1002B000F894EE89FF896083E889F98980818370E9
:1002C000806480839FBF81E090E0DF91CF911F9198
:1002D0000F91FF90EF900895CF93DF93EC01888DFD
:1002E0008823C9F0EA89FB89808185FD05C0A8893A
:1002F000B9898C9186FD0FC00FB607FCF5CF8081C0
:1003000085FFF2CFA889B9898C9185FFEDCFCE0109
:100310000E94FD00E7CFDF91CF91089580E090E04B
:10032000892B29F00E94F30081110C94000008959C
:1003300021E001C0220F6A95EAF7DC011C962C939C
:100340001C971A965C934E931997ED91FC91048437
:10035000F585E02D60E0099408950895DC01ED91A4
:10036000FC910684F785E02D41E0099581E090E05D
:1003700008950895089585ED8093BC008091BC0098
:1003800084FDFCCF1092F902089540919F02262F20
:1003900030E0240F311D21323105DCF42091F902C7
:1003A0002430C9F4FC0180E090E0861758F43091C5
:1003B0009F022191DC01A158BD4FA30FB11D2C93C9
:1003C0000196F3CF80919F02680F60939F0280E0B7
:1003D000089581E0089582E008950895E091C702AC
:1003E0008091C602E81730F4F0E0E15AFD4F8081B9
:1003F00090E008958FEF9FEF08959091C70280914C
:10040000C602981750F4E92FF0E0E15AFD4F208121
:1004100030E09F5F9093C70202C02FEF3FEFC9010A
:1004200008958091C60290E02091C702821B910935
:100430000895CF92DF92EF92FF920F931F93CF9385
:10044000DF937C01CB018A012091FA02222389F0FB
:10045000EB016B01C40ED51ECC15DD0569F0699169
:10046000D701ED91FC910190F081E02DC701099534
:10047000F3CF642F0E94C501C801DF91CF911F9176
:100480000F91FF90EF90DF90CF900895CF93DF937F
:100490001F92CDB7DEB769832091FA022223D1F0F3
:1004A00020911D03203240F021E030E0FC01338335
:1004B000228380E090E015C08091FB02E82FF0E0FD
:1004C000E450FD4F998190838F5F8093FB0280936E
:1004D0001D0305C061E0CE0101960E94C50181E0C7
:1004E00090E00F90DF91CF910895089580E090E023
:1004F0000895862F642F0C94380A60E070E089E03C
:100500000E94D10B60E070E08AE00E94D10B60E0B5
:1005100070E08BE00C94D10B862F642F0C94090AA9
:1005200060E08DE00C94090A0E94EE10862F0C9476
:10053000E0090F931F93CF93DF93062F0F70423084
:1005400019F440E0602F0EC0142FEC0170E084E03D
:10055000759567958A95E1F7CE010E94B009412F04
:10056000602FCE01DF91CF911F910F910C94B009B4
:10057000FC0184858823A9F0218532852115310568
:1005800019F4611106C007C02130310521F4611151
:1005900002C0858701C015866585CF010E960C9433
:1005A0008D0908953FB7F8948091CF029091D002C1
:1005B000A091D102B091D20226B5A89B05C02F3FD1
:1005C00019F00196A11DB11D3FBFBA2FA92F982F79
:1005D0008827820F911DA11DB11DBC01CD0142E0F4
:1005E000660F771F881F991F4A95D1F708951F92AC
:1005F0000F920FB60F9211242F933F938F939F93D7
:10060000AF93BF9380911E0390911F03A09120038D
:10061000B09121033091CE0223E0230F2D3720F437
:100620000196A11DB11D05C026E8230F0296A11D4C
:10063000B11D2093CE0280931E0390931F03A093BD
:100640002003B09321038091CF029091D002A0911A
:10065000D102B091D2020196A11DB11D8093CF02AB
:100660009093D002A093D102B093D202BF91AF91E8
:100670009F918F913F912F910F900FBE0F901F90E0
:1006800018956115710579F0FB0101900020E9F7DB
:100690003197AF01461B570BDC01ED91FC910280B5
:1006A000F381E02D099480E090E008950C944103DB
:1006B00080E10E94300C0E9466086DE671E082E2E3
:1006C00093E00E94560381E10E94300C0E9466086C
:1006D0006DE671E082E293E00E94560382E10E949F
:1006E000300C0E9466086FE671E082E293E00C94A1
:1006F00041031F920F920FB60F9211242F933F9335
:100700004F935F936F937F938F939F93AF93BF9319
:10071000EF93FF9382E293E00E94FD00FF91EF913F
:10072000BF91AF919F918F917F916F915F914F9109
:100730003F912F910F900FBE0F901F9018951F9211
:100740000F920FB60F9211242F938F939F93EF93D5
:10075000FF93E0913203F09133038081E0913803FD
:10076000F091390382FD12C0908180913B038F5F2D
:100770008F7320913C03821751F0E0913B03F0E02E
:10078000EE5DFC4F958F80933B0301C08081FF910C
:10079000EF919F918F912F910F900FBE0F901F900F
:1007A0001895DC01ED91FC910684F785E02D40E081
:1007B000099461E00E94D1038BE39FE10197F1F777
:1007C00008950F931F93CF93DF9380915D029091D3
:1007D0005E028130910509F47CC060F1029709F056
:1007E000FDC00E947D028AE394E00E94D90380E06C
:1007F0000E94EF0865EB71E08AE394E00E945603E3
:1008000081E00E94EF086FEB71E08AE394E00E94C0
:10081000560361E08EE00E94090A60E08FE00E94CA
:10082000090A60E08CE00E94090A61E08DE00E9404
:10083000090AB4C00E947D028AE394E00E94D903B1
:1008400080E00E94EF0862E771E08AE394E00E9492
:10085000560381E00E94EF0863E871E08AE394E0C8
:100860000E94560360E08FE00E94090A61E08CE07C
:100870000E94090A60E08EE00E94090A0E9490022C
:1008800001E010E00E9458030E94740A8332D1F400
:10089000C4E0D0E061E08DE00E94090A62E370E00C
:1008A00080E090E00E94470C0E94900262E370E0BA
:1008B00080E090E00E94470C219761F710935E0260
:1008C00000935D0280915D0290915E02892BD1F2CE
:1008D00085C060910E0170910F0189E00E94D10BDB
:1008E00060910C0170910D018AE00E94D10B609122
:1008F0000A0170910B018BE00E94D10B8AE394E016
:100900000E94D90380E00E94EF0864E971E08AE365
:1009100094E00E94560381E00E94EF0864EA71E0CF
:100920008AE394E00E94560360E08EE00E94090A88
:1009300061E08FE00E94090A60E08CE00E94090AF1
:100940000E949002C2E0D0E00E9458030E94740A04
:1009500080E10E94300C2091040130910501821742
:1009600093070CF445C081E10E94300C20910201F4
:100970003091030182179307DCF182E10E94300C71
:100980002091000130910101821793078CF115C06D
:1009900080915D0290915E02029701F50E945803DA
:1009A0000E94740A80915C02882391F310925E0287
:1009B00010925D0210925C02EBCF80915C02882362
:1009C00031F010925E0210925D0210925C028091F2
:1009D0005D0290915E02019709F4B6CF68EC70E079
:1009E00080E090E0DF91CF911F910F910C94470C24
:1009F000D0935E02C0935D02EACF8AE394E00E9446
:100A0000D90360ED71E08AE394E00E94560381E02F
:100A10000C94EF08CF932091EA033091EB0321303F
:100A2000310509F070C0C82F682F82E293E00E9460
:100A30001F016FE671E082E293E00E9441036AE2E7
:100A40008AE394E00E94AE01C33209F446C0CA3280
:100A500009F048C08091530490915404FC013191F5
:100A600020915504A6E5B4E0449631111AC0211135
:100A70001FC068ED71E08AE394E00E94560368EEBF
:100A800073E080E090E00E94470C0E94FD0481E04A
:100A900080935C021092690410925504CF910C94DB
:100AA000E103231305C031912D918E179F07E9F6BD
:100AB00062EE71E08AE394E00E94560368EE73E010
:100AC00080E090E00E94470C0E94FD0410926904AF
:100AD0001092550410925C0216C010926904109294
:100AE000550411C0E0916904E33169F091E09E0F73
:100AF00090936904F0E0ED5AFB4FC283E92FF0E0D8
:100B0000ED5AFB4F1282CF9108950F931F93CF930D
:100B1000DF93EC01423018F08C8188608C834F8326
:100B20006887222329F0413019F48C8184608C83FA
:100B300064E670E080E090E00E94470C6C8164FD08
:100B400031C0E881F9810684F785E02D42E063E059
:100B5000CE0109958BE496E40197F1F7E881F981DC
:100B60000684F785E02D42E063E0CE01099503E5B8
:100B700012E0C8010197F1F7E881F9810684F78551
:100B8000E02D42E063E0CE010995C8010197F1F73D
:100B9000E881F9810684F785E02D42E062E0CE012C
:100BA000099517C06062CE010E94D1038BE496E4E0
:100BB0000197F1F76C816062CE010E94D10303E5D9
:100BC00012E0C8010197F1F76C816062CE010E94CA
:100BD000D103C8010197F1F76C816062CE010E94D8
:100BE000D1038BEE90E00197F1F784E08D836CE008
:100BF000CE010E94D103CE010E94D90382E08E83F0
:100C000066E0CE010E94D103E881F9810484F58574
:100C1000E02D6FEFCE01DF91CF911F910F910994DD
:100C2000EF92FF920F931F93CF93DF93EC01062F68
:100C3000F42EE22E8B85888B1092C7021092C6028A
:100C40001092FB0210921D031092F90211E0109312
:100C5000F8021092D30261E082E10E94090A61E089
:100C600083E10E94090A8091B9008E7F8093B900C8
:100C70008091B9008D7F8093B90088E48093B8009B
:100C800085E48093BC008CEA91E09093C502809348
:100C9000C4028DEA91E09093C3028093C2028889D6
:100CA0001093FA0280931C031092FB0210921D0312
:100CB0000E94310991E0811190E0998B811105C06A
:100CC0008FEB93E00E94FD018E878989882339F09C
:100CD0001F861C8260E0CE010E960E948D092E2D8B
:100CE0004F2D602FCE01DF91CF911F910F91FF907B
:100CF000EF900C9485051F920F920FB60F9211245E
:100D00002F933F934F935F936F937F938F939F9313
:100D1000AF93BF93EF93FF938091B900887F8036A4
:100D200009F49CC068F5883209F45BC090F4803106
:100D300009F454C038F4882309F4F6C0883009F463
:100D40004DC0F6C0883109F44CC0803209F45DC052
:100D5000EFC0803409F468C048F4803309F455C00A
:100D6000883309F0E5C08093F702D8C0803509F4D4
:100D70004FC0883509F45DC0883409F0D9C0D6C0A9
:100D8000883909F4C7C0A8F4883709F467C038F473
:100D9000883609F463C0803709F460C0C9C0883858
:100DA00009F4B8C0803909F45FC0803809F0C0C0C8
:100DB0005BC0803B09F486C038F4803A09F466C011
:100DC000883A09F47FC0B4C0803C09F4A7C0883CCD
:100DD00009F4A4C0883B09F48AC0AAC08091D40257
:100DE00010C09091F6028091F502981770F5E0918D
:100DF000F60281E08E0F8093F602F0E0EB52FD4F99
:100E000080818093BB0085EC86C08093F7028EC002
:100E1000E091F60281E08E0F8093F6028091BB0094
:100E2000F0E0EB52FD4F80839091F6028091F50245
:100E30006EC0E091F60281E08E0F8093F602809101
:100E4000BB00F0E0EB52FD4F80838091F8028111EE
:100E50006DC081E08093D30284EA61C083E0809317
:100E6000F9021092C102CFCF8091C102803208F006
:100E700051C0E091C10281E08E0F8093C102809148
:100E8000BB00F0E0EF55FD4F8083BDCF85EC809334
:100E9000BC001092F9028091C102803230F4E091DE
:100EA000C102F0E0EF55FD4F10826091C10270E089
:100EB000E091C202F091C30281EA92E0099510929A
:100EC000C10236C084E08093F9021092A002109211
:100ED0009F02E091C402F091C502099580919F02A2
:100EE000811105C081E080939F0210927F02E09102
:100EF000A00281E08E0F8093A002F0E0E158FD4F48
:100F000080818093BB009091A00280919F029817EE
:100F100008F479CF85E88093BC000AC085EC809303
:100F2000BC001092F90204C01092F7020E94BB01AB
:100F3000FF91EF91BF91AF919F918F917F916F91B1
:100F40005F914F913F912F910F900FBE0F901F9087
:100F5000189596E0899FD0011124A553BC4F909617
:100F60007C936E935F9791E091969C93919790916B
:100F70003704E0913804F0913904992339F030971F
:100F800051F0811108C08091E70304C0309719F037
:100F90005C968C9109940895CF92DF92EF92FF9224
:100FA0000F931F9396E0899FF0011124E553FC4FA6
:100FB00011A2278D30A12130310539F158F02230AE
:100FC000310509F447C02330310509F04FC060E016
:100FD00070E044C0662309F449C061E070E00E94FB
:100FE000A9072FB7F89480911E0390911F03A09139
:100FF0002003B09121032FBF8093230490932404F6
:10100000A0932504B093260431C09FB7F894C090F4
:101010001E03D0901F03E0902003F09021039FBF98
:10102000009123041091240420912504309126047A
:10103000C01AD10AE20AF30A00913504109136046D
:1010400020E030E00C151D052E053F0518F462E088
:1010500070E004C061110AC063E070E01F910F915D
:10106000FF90EF90DF90CF900C94A9071F910F9104
:10107000FF90EF90DF90CF900895833081F028F4B7
:10108000813099F08230A1F008958730A9F088303E
:10109000B9F08430D1F4809180008F7D03C08091BD
:1010A00080008F7780938000089584B58F7702C089
:1010B00084B58F7D84BD08958091B0008F7703C083
:1010C0008091B0008F7D8093B00008958F929F92A1
:1010D000AF92BF92CF92DF92EF92FF920F931F9346
:1010E000CF93DF93CDB7DEB7A1970FB6F894DEBFED
:1010F0000FBECDBF6C01990FEE08FF08F7FE2DC0A3
:101100006DE282E293E00E941F018C0122273327C7
:10111000A9012C193D094E095F0919A2CE0181963A
:101120007C019AE0892E912CA12CB12CCA01B90125
:10113000A50194010E94C610605DF70162937F01D2
:10114000211531054105510589F7BF0182E293E080
:101150000E944103800F911F1FC0A701960119A291
:101160008E010F5D1F4F8AE0C82ED12CE12CF12C8F
:10117000CA01B901A70196010E94C610605DF8017D
:1011800062938F01211531054105510589F7BF0192
:1011900082E293E00E944103A1960FB6F894DEBF6D
:1011A0000FBECDBFDF91CF911F910F91FF90EF90B8
:1011B000DF90CF90BF90AF909F908F900895CF9386
:1011C000DF930E946608EC016FE671E082E293E033
:1011D0000E9441038C0F9D1FDF91CF910895CF9303
:1011E000DF93CDB7DEB728970FB6F894DEBF0FBEFA
:1011F000CDBF409123015091240160912501709150
:1012000026014D835E836F8378874091270150913B
:1012100028016091290170912A0149835A836B83C7
:101220007C8320914104821710F08FEF820F309160
:10123000420490E0FE01E80FF91F303121F4243020
:1012400011F4618101C0658160688AE394E02896A9
:101250000FB6F894DEBF0FBECDBFDF91CF910C94D7
:10126000D10330911D03313208F04BC08091F90257
:101270008111FCCF90911C0322E02093F90221E020
:101280002093F8022FEF2093F7021092F60230938A
:10129000F502ECEFF2E0A5EDB2E020E0321721F02C
:1012A00041914D932F5FFACF1092D4022091D40236
:1012B000990F922B9093D4029091D302913061F4C4
:1012C0001092D3029091D4029093BB009091BC00F5
:1012D00093FDF8CF95EC01C095EE9093BC009091F2
:1012E000F9029230E1F39091F7029F3F79F08091FB
:1012F000F702803241F08091F702803331F084E0D0
:1013000005C081E003C082E001C083E01092FB02CF
:1013100010921D031092FA020895FC0123812223EA
:10132000B1F08181682B6083828191E09093FA0211
:1013300080931C031092FB0210921D038FEB93E02D
:101340000E9446020E943109282F30E002C020E0AE
:1013500030E081E090E0232B11F080E090E00895F0
:10136000EF92FF920F931F93CF938C01FC0184E0C7
:10137000C0E060FF02C09589C92B66958150319607
:101380008111F7CF413011F4F8014489F8018585C6
:10139000C82BC42B7801FEE0EF0EF11CF801628926
:1013A0006C2BC7010E948D09F801628960956C233E
:1013B000C701CF911F910F91FF90EF900C948D0971
:1013C000CF93DF93282F30E0F901E255FF4F84914E
:1013D000F901E656FF4FD491F901EA57FF4FC49146
:1013E000CC2391F081110E943D08EC2FF0E0EE0F2C
:1013F000FF1FE458FF4FA591B491EC91ED2381E0DC
:1014000090E021F480E002C080E090E0DF91CF9195
:1014100008951F93CF93DF93282F30E0F901E25511
:10142000FF4F8491F901E656FF4FD491F901EA5735
:10143000FF4FC491CC23C1F0162F81110E943D08AB
:10144000EC2FF0E0EE0FFF1FEE58FF4FA591B49187
:101450009FB7F894111104C08C91D095D82302C085
:10146000EC91DE2BDC939FBFDF91CF911F9108950C
:10147000CF93DF9390E0FC01E656FF4F2491FC01EF
:10148000EA57FF4F8491882361F190E0880F991FFC
:10149000FC01E859FF4FC591D491FC01EE58FF4F74
:1014A000A591B491611109C09FB7F89488812095E6
:1014B00082238883EC912E230BC0623061F49FB7A6
:1014C000F8948881322F309583238883EC912E2BDA
:1014D0002C939FBF06C08FB7F894E8812E2B2883EA
:1014E0008FBFDF91CF9108956F927F928F929F92DD
:1014F000AF92BF92CF92DF92EF92FF920F931F9322
:10150000CF93DF9381E0809337048FB7F8944091B5
:101510001E0350911F0360912003709121038FBF20
:101520008091270490912804A0912904B0912A0465
:10153000481B590B6A0B7B0B809133049091340448
:10154000A0E0B0E084179507A607B70708F0F0C041
:10155000C0E080913104C81730F0712C812C912C9F
:101560005401839440C0E0912D04F0912E04EC0FBF
:10157000F11D62E080810E94380ACF5FEACFC62D5C
:10158000D0E0E0912D04F0912E04EC0FFD1F80813E
:101590000E94E0092496CC0FDD1FC553DC4F892B38
:1015A00009F04BC0888199818C299D299983888372
:1015B000639480913104681610F3E0912F04F09148
:1015C0003004E00FF11F61E080810E94090A8091E0
:1015D0002F0490913004FC01E00FF11F60E0808146
:1015E0000E94380A739480913204781658F5072DBA
:1015F00010E0E0912F04F0913004E00FF11F61E062
:1016000080810E94380AE0912F04F0913004E00FAD
:10161000F11F60E080810E94090AD501C401072CF6
:1016200004C0880F991FAA1FBB1F0A94D2F76C0130
:101630007C01E094F094612CBCCF888199818E214B
:101640009F21B4CF2BECE22E23E0F22E87E094E032
:10165000F7012FEF3FEF478D50A1452B21F4148E5A
:10166000368F258F11A236968E179F07A1F7C0E0FF
:1016700096E0D92E80913104C81758F5D0E00C2F90
:1016800010E0000F111F0D521C4F20913204D21791
:10169000F0F4F801408151810D2E02C05695479516
:1016A0000A94E2F7642F6170C29F900111242D0FFC
:1016B000311DEBECF3E080E0A58DB68D2A173B07DA
:1016C00009F456C08F5F36968A30B1F735C0CF5FC8
:1016D000D1CF80E0F70191A1911181E0F6E0EF0E0A
:1016E000F11C97E0E91694E0F906A1F79FB7F8948A
:1016F00040911E0350911F036091200370912103BC
:101700009FBF40932704509328046093290470934B
:101710002A04882369F08091EC03882349F08091A2
:10172000EA039091EB03019719F48091E7032AC033
:101730001092370480E026C040FF1CC0EBECF3E0C1
:1017400080E090E0448D411117C0E0912B04F091AE
:101750002C04E20FF31F4081D89EF001D99EF00DBA
:101760001124E553FC4F448F368F258F10A2178E1E
:101770000E94CC07DF5F89CF019636968A309105AB
:1017800009F7F8CFDF91CF911F910F91FF90EF9064
:10179000DF90CF90BF90AF909F908F907F906F9091
:1017A00008951F93CF93DF93182FEB0161E00E9400
:1017B000380A209711F460E004C0CF3FD10539F416
:1017C00061E0812FDF91CF911F910C94090AE12FE5
:1017D000F0E0E255FF4FE491E330F9F048F4E130F6
:1017E000B9F0E230A1F584B5806284BDC8BD34C0D3
:1017F000E730E9F0E83019F1E43049F580918000F4
:10180000806280938000D0938B00C0938A0024C0B4
:1018100084B5806884BDC7BD1FC08091800080688A
:1018200080938000D0938900C093880015C0809178
:10183000B00080688093B000C093B3000DC0809169
:10184000B00080628093B000C093B40005C0C0387F
:10185000D1050CF0B5CFAFCFDF91CF911F91089597
:101860008E3008F08E508770806480937C00809169
:101870007A00806480937A0080917A0086FDFCCFA4
:10188000809178002091790090E0922B08958F92BA
:101890009F92AF92BF92CF92DF92EF92FF926B0135
:1018A0007C010E94D2024B015C01C114D104E1040D
:1018B000F104F1F00E94D202DC01CB0188199909F0
:1018C000AA09BB09883E9340A105B10570F321E048
:1018D000C21AD108E108F10888EE880E83E0981E4C
:1018E000A11CB11CC114D104E104F10419F7DDCF2E
:1018F000FF90EF90DF90CF90BF90AF909F908F9030
:101900000895789484B5826084BD84B5816084BD77
:1019100085B5826085BD85B5816085BD80916E008D
:10192000816080936E0010928100809181008260BE
:1019300080938100809181008160809381008091FB
:1019400080008160809380008091B10084608093EA
:10195000B1008091B00081608093B00080917A00E6
:10196000846080937A0080917A00826080937A000C
:1019700080917A00816080937A0080917A008068FB
:1019800080937A001092C100E0913203F09133030A
:1019900082E08083E0912E03F0912F031082E0918A
:1019A0003003F09131038FEC808310923A03E09181
:1019B0003603F091370386E08083E0913403F091A1
:1019C0003503808180618083E0913403F091350399
:1019D000808188608083E0913403F09135038081B9
:1019E00080688083E0913403F091350380818F7D9E
:1019F000808361E08DE00E94380A61E08CE00E9403
:101A0000380A61E08FE00E94380A61E08EE00E94AF
:101A1000380A60E080E10E94380A60E081E10E94BB
:101A2000380A60E082E10E94380A61E089E00E94A1
:101A3000380A61E08AE00E94380A61E08BE00E9487
:101A4000380A60E08FE00E94090A60E08CE00E94A2
:101A5000090A60E08EE00E94090A20E042E060E1AD
:101A60008AE394E00E9410066FEF8AE394E00E94FC
:101A7000B80280E00E94EF0867EE71E08AE394E02C
:101A80000E94560364EF71E080E090E00E94470CF2
:101A900081E00E94EF0868EF71E08AE394E00E9421
:101AA000560360ED77E080E090E00E94470C8AE307
:101AB00094E00E94D90367EE71E08AE394E00E940B
:101AC000560381E00E94EF0869E072E08AE394E047
:101AD0000E94560360E070E089E00E94D10B60E054
:101AE00070E08AE00E94D10B60E070E08BE00E9421
:101AF000D10B68EE73E080E090E00E94470C80E13B
:101B00000E94300C9093CD028093CC0281E10E9420
:101B1000300C9093CB028093CA0282E10E94300C79
:101B20009093C9028093C80267E172E082E293E079
:101B30000E9456038091CC029091CD020E946608CB
:101B400064E272E082E293E00E9456038091CA024E
:101B50009091CB020E94660861E372E082E293E01A
:101B60000E9456038091C8029091C9020E946608A3
:101B700060910E0170910F016150710970930F0116
:101B800060930E0189E00E94D10B64E170E080E077
:101B900090E00E94470C80E10E94300C0E94DF0818
:101BA00080E10E94300C853D934014F760910C0158
:101BB00070910D016150710970930D0160930C01DA
:101BC0008AE00E94D10B64E170E080E090E00E9426
:101BD000470C81E10E94300C0E94DF0881E10E94E5
:101BE000300C853D934014F760910A0170910B0110
:101BF0006150710970930B0160930A018BE00E94A0
:101C0000D10B64E170E080E090E00E94470C82E13B
:101C10000E94300C0E94DF0882E10E94300C853D5A
:101C2000934014F780E10E94300C7C0190930901ED
:101C30008093080181E10E94300CEC019093070130
:101C40008093060182E10E94300C8C01B701FF0CE9
:101C5000880B990B0E94CD0F24EA30E74DE75FE334
:101C60000E9431100E94950F70930501609304014A
:101C7000BE01DD0F880B990B0E94CD0F24EA30E7DF
:101C80004DE75FE30E9431100E94950F70930301AE
:101C900060930201B801110F880B990B0E94CD0FC0
:101CA00024EA30E74DE75FE30E9431100E94950F70
:101CB00070930101609300016EE372E082E293E0B1
:101CC0000E94560380910401909105010E946608CC
:101CD00066E472E082E293E00E9456038091020182
:101CE000909103010E9466086EE472E082E293E044
:101CF0000E94560380910001909101010E946608A4
:101D0000C3E0D0E061E08DE00E94090A62E370E088
:101D100080E090E00E94470C0E94900262E370E035
:101D200080E090E00E94470C219761F760E070E04E
:101D300089E00E94D10B60E070E08AE00E94D10B44
:101D400060E070E08BE00E94D10B8AE095E0909318
:101D50003904809338040E94E1030E948E01FBCF76
:101D6000109225031092240388EE93E0A0E0B0E0E7
:101D70008093260390932703A0932803B09329030D
:101D80002FE231E0309323032093220325EC30E04F
:101D900030932F0320932E0324EC30E03093310353
:101DA0002093300320EC30E0309333032093320350
:101DB00021EC30E0309335032093340322EC30E003
:101DC000309337032093360326EC30E03093390309
:101DD0002093380310923B0310923C0310923D0372
:101DE00010923E031092C2031092C1038093C3036A
:101DF0009093C403A093C503B093C60381E491E01C
:101E00009093C0038093BF0386E592E090935404BF
:101E100080935304109269041092550410923D046B
:101E200010923C048DE591E090933B0480933A043A
:101E300010924A048FEF8093490410924804109244
:101E40004B048FE38093450410924604109247049C
:101E5000109244041092430484E080934C0482E086
:101E600080934D0481E080934E0480E180934F0481
:101E700080E28093500480E48093510480E8809352
:101E8000520440E050E063E08AE394E00E9498014D
:101E90001092CD031092D1031092D0031092D2036E
:101EA00083E591E09093CC038093CB03EBECF3E0DC
:101EB00087E094E0148E10A2178E11A236968E172A
:101EC0009F07C1F783E191E090932E0480932D0446
:101ED00080E191E09093300480932F0484E080931C
:101EE000310483E08093320487E191E090932C04E5
:101EF00080932B048AE090E0909334048093330421
:101F000084EF91E090933604809335041092390465
:101F10001092380410922704109228041092290479
:101F200010922A041092370408950E949C0F68941E
:101F3000B1110C942B1008950E94101088F09F5737
:101F400098F0B92F9927B751B0F0E1F0660F771FDD
:101F5000881F991F1AF0BA95C9F714C0B13091F0D3
:101F60000E942A10B1E008950C942A10672F782F50
:101F70008827B85F39F0B93FCCF386957795679598
:101F8000B395D9F73EF490958095709561957F4F04
:101F90008F4F9F4F0895E89409C097FB3EF49095AA
:101FA0008095709561957F4F8F4F9F4F9923A9F032
:101FB000F92F96E9BB279395F695879577956795C1
:101FC000B795F111F8CFFAF4BB0F11F460FF1BC005
:101FD0006F5F7F4F8F4F9F4F16C0882311F096E998
:101FE00011C0772321F09EE8872F762F05C0662346
:101FF00071F096E8862F70E060E02AF09A95660FFF
:10200000771F881FDAF7880F9695879597F90895B7
:1020100057FD9058440F551F59F05F3F71F0479599
:10202000880F97FB991F61F09F3F79F0879508957E
:10203000121613061406551FF2CF4695F1DF08C09D
:10204000161617061806991FF1CF869571056105BA
:1020500008940895E894BB2766277727CB0197F962
:1020600008950E9444100C94B5100E94A71038F0F7
:102070000E94AE1020F0952311F00C949E100C9449
:10208000A41011240C942B100E94081070F3959F3B
:10209000C1F3950F50E0551F629FF001729FBB275F
:1020A000F00DB11D639FAA27F00DB11DAA1F649FFB
:1020B0006627B00DA11D661F829F2227B00DA11DAE
:1020C000621F739FB00DA11D621F839FA00D611D34
:1020D000221F749F3327A00D611D231F849F600D55
:1020E000211D822F762F6A2F11249F5750409AF07E
:1020F000F1F088234AF0EE0FFF1FBB1F661F771F0A
:10210000881F91505040A9F79E3F510580F00C94D4
:102110009E100C942B105F3FE4F3983ED4F3869509
:1021200077956795B795F795E7959F5FC1F7FE2B74
:10213000880F911D9695879597F9089597F99F6750
:1021400080E870E060E008959FEF80EC089500243F
:102150000A941616170618060906089500240A940C
:1021600012161306140605060895092E0394000C92
:1021700011F4882352F0BB0F40F4BF2B11F460FF21
:1021800004C06F5F7F4F8F4F9F4F0895A1E21A2EBB
:10219000AA1BBB1BFD010DC0AA1FBB1FEE1FFF1F0B
:1021A000A217B307E407F50720F0A21BB30BE40B5B
:1021B000F50B661F771F881F991F1A9469F76095A2
:1021C0007095809590959B01AC01BD01CF0108955C
:1021D000EE0FFF1F0590F491E02D099481E090E04F
:0A21E000F8940C94F310F894FFCF6C
:1021EA0000040004000400040004FF00FF00FF00D4
:1021FA0006070802030405313233343536373839D5
:10220A002A30230040145400401050000000001FE0
:10221A00018C00B6006C01E700C500D9000000007F
:10222A0000460219027602ED011102FD01EE0100DB
:10223A0000000079028C02960200000000AE018CB8
:10224A00007602750210069801B80299022C000D58
:10225A000A00416C61726D20726F7A62726F6A6FE6
:10226A006E79002320757A62726F6920616C6172DF
:10227A006D202000416C61726D20757A62726F6AFE
:10228A006F6E79002A3E50494E3E2A20726F7A625A
:10229A0072616A6100416C61726D20212121002AFC
:1022AA003E50494E3E2A2077796C61637A6120005C
:1022BA004841534C4F3A200020504F505241574EFC
:1022CA004500205A4C45005F5F5F20414C41524D0A
:1022DA00205631205F5F5F004D696368616C202082
:1022EA00537A796D637A616B004B616C69627261D2
:1022FA00636A612E2E2E007374616E206E69736B91
:10230A0069313A007374616E206E69736B69323A8F
:10231A00007374616E206E69736B69333A00707270
:10232A006F6720313A0070726F6720323A0070721C
:0C233A006F6720333A0037373737000058
:107E0000112484B714BE81FFF0D085E080938100F7
:107E100082E08093C00088E18093C10086E0809377
:107E2000C20080E18093C4008EE0C9D0259A86E02C
:107E300020E33CEF91E0309385002093840096BBD3
:107E4000B09BFECF1D9AA8958150A9F7CC24DD24C4
:107E500088248394B5E0AB2EA1E19A2EF3E0BF2EE7
:107E6000A2D0813461F49FD0082FAFD0023811F036
:107E7000013811F484E001C083E08DD089C08234E0
:107E800011F484E103C0853419F485E0A6D080C0E4
:107E9000853579F488D0E82EFF2485D0082F10E0AE
:107EA000102F00270E291F29000F111F8ED06801E7
:107EB0006FC0863521F484E090D080E0DECF843638
:107EC00009F040C070D06FD0082F6DD080E0C81688
:107ED00080E7D80618F4F601B7BEE895C0E0D1E017
:107EE00062D089930C17E1F7F0E0CF16F0E7DF06D8
:107EF00018F0F601B7BEE89568D007B600FCFDCFD4
:107F0000A601A0E0B1E02C9130E011968C91119780
:107F100090E0982F8827822B932B1296FA010C0160
:107F200087BEE89511244E5F5F4FF1E0A038BF0790
:107F300051F7F601A7BEE89507B600FCFDCF97BE46
:107F4000E89526C08437B1F42ED02DD0F82E2BD052
:107F50003CD0F601EF2C8F010F5F1F4F84911BD097
:107F6000EA94F801C1F70894C11CD11CFA94CF0C13
:107F7000D11C0EC0853739F428D08EE10CD085E9AC
:107F80000AD08FE07ACF813511F488E018D01DD067
:107F900080E101D065CF982F8091C00085FFFCCF94
:107FA0009093C60008958091C00087FFFCCF809118
:107FB000C00084FD01C0A8958091C6000895E0E648
:107FC000F0E098E1908380830895EDDF803219F02E
:107FD00088E0F5DFFFCF84E1DECF1F93182FE3DFCA
:107FE0001150E9F7F2DF1F91089580E0E8DFEE27F6
:047FF000FF270994CA
:027FFE00040479
:0400000300007E007B
:00000001FF
