:100000000C9462000C948A000C948A000C948A0070
:100010000C948A000C948A000C948A000C948A0038
:100020000C948A000C948A000C948A000C948A0028
:100030000C948A000C948A000C948A000C948A0018
:100040000C94FE070C948A000C94E5020C94BF02F9
:100050000C948A000C948A000C948A000C948A00F8
:100060000C941D040C948A0000000000240027005A
:100070002A0000000000250028002B0000000000DE
:1000800023002600290004040404040404040202DA
:100090000202020203030303030301020408102007
:1000A0004080010204081020010204081020000012
:1000B0000008000201000003040700000000000027
:1000C0000000900A11241FBECFEFD8E0DEBFCDBFE5
:1000D00011E0A0E0B1E0E0EFF6E102C005900D9282
:1000E000A63AB107D9F723E0A6EAB1E001C01D9214
:1000F000A639B207E1F710E0C2E6D0E004C02197CC
:10010000FE010E946B0BC136D107C9F70E94480857
:100110000C94760B0C940000CF92DF92EF92FF923A
:100120000F931F93CF93DF936C017A018B01C0E093
:10013000D0E0CE15DF0581F0D8016D918D01D6019B
:10014000ED91FC910190F081E02DC6010995892B7C
:1001500011F02196EECF7E01C701DF91CF911F9163
:100160000F91FF90EF90DF90CF900895FC01538D99
:10017000448D252F30E0842F90E0821B930B541781
:1001800010F0CF96089501970895FC01918D828D0E
:10019000981761F0828DDF01A80FB11D5D968C91DB
:1001A000928D9F5F9F73928F90E008958FEF9FEFE6
:1001B0000895FC01918D828D981731F0828DE80FA2
:1001C000F11D858D90E008958FEF9FEF0895FC015C
:1001D000918D228D892F90E0805C9F4F821B910929
:1001E0008F739927089580E692E00E94E70021E04E
:1001F000892B09F420E0822F0895FC01848DDF0112
:10020000A80FB11DA35ABF4F2C91848D90E0019689
:100210008F739927848FA689B7892C93A089B18978
:100220008C91837080648C93938D848D981306C019
:100230000288F389E02D80818F7D80830895EF927D
:10024000FF920F931F93CF93DF93EC0181E0888F90
:100250009B8D8C8D981305C0E889F989808185FD77
:1002600026C0F62E0B8D10E00F5F1F4F0F73112766
:10027000E02E8C8DE8120CC00FB607FCFACFE8898F
:10028000F989808185FFF5CFCE010E94FD00F1CF75
:100290008B8DFE01E80FF11DE35AFF4FF0829FB7EF
:1002A000F8940B8FEA89FB89808180620AC09FB72E
:1002B000F894EE89FF896083E889F98980818370E9
:1002C000806480839FBF81E090E0DF91CF911F9198
:1002D0000F91FF90EF900895CF93DF93EC01888DFD
:1002E0008823C9F0EA89FB89808185FD05C0A8893A
:1002F000B9898C9186FD0FC00FB607FCF5CF8081C0
:1003000085FFF2CFA889B9898C9185FFEDCFCE0109
:100310000E94FD00E7CFDF91CF91089580E090E04B
:10032000892B29F00E94F30081110C94000008959C
:1003300021E001C0220F6A95EAF7DC011C962C939C
:100340001C971A965C934E931997ED91FC91048437
:10035000F585E02D60E0099408950895DC01ED91A4
:10036000FC910684F785E02D41E0099581E090E05D
:1003700008950895089585ED8093BC008091BC0098
:1003800084FDFCCF1092370208954091E601262F9C
:1003900030E0240F311D21323105DCF42091370289
:1003A0002430C9F4FC0180E090E0861758F43091C5
:1003B000E6012191DC01AA53BE4FA30FB11D2C937E
:1003C0000196F3CF8091E601680F6093E60180E02B
:1003D000089581E0089582E008950895E0910E0265
:1003E00080910D02E81730F4F0E0EA55FE4F80816D
:1003F00090E008958FEF9FEF089590910E02809105
:100400000D02981750F4E92FF0E0EA55FE4F2081D5
:1004100030E09F5F90930E0202C02FEF3FEFC901C3
:10042000089580910D0290E020910E02821B9109A7
:100430000895CF92DF92EF92FF920F931F93CF9385
:10044000DF937C01CB018A0120913802222389F0BD
:10045000EB016B01C40ED51ECC15DD0569F0699169
:10046000D701ED91FC910190F081E02DC701099534
:10047000F3CF642F0E94C501C801DF91CF911F9176
:100480000F91FF90EF90DF90CF900895CF93DF937F
:100490001F92CDB7DEB76983209138022223D1F0B5
:1004A00020915B02203240F021E030E0FC013383F8
:1004B000228380E090E015C080913902E82FF0E0BF
:1004C000E65CFD4F998190838F5F80933902809322
:1004D0005B0205C061E0CE0101960E94C50181E08A
:1004E00090E00F90DF91CF910895089580E090E023
:1004F0000895862F642F0C945907862F642F0C942F
:100500008807862F0C9430070E94710B0F931F935E
:10051000CF93DF93062F0F70423019F440E0602F25
:100520000EC0142FEC0170E084E0759567958A95F4
:10053000E1F7CE010E940007412F602FCE01DF912D
:10054000CF911F910F910C940007FC0184858823A3
:10055000A9F0218532852115310519F4611106C0F4
:1005600007C02130310521F4611102C0858701C027
:1005700015866585CF010E960C94DD0608951F92B1
:100580000F920FB60F9211242F933F934F935F93C7
:100590006F937F938F939F93AF93BF93EF93FF934B
:1005A00080E692E00E94FD00FF91EF91BF91AF9134
:1005B0009F918F917F916F915F914F913F912F917B
:1005C0000F900FBE0F901F9018951F920F920FB6AD
:1005D0000F9211242F938F939F93EF93FF93E091AA
:1005E0007002F09171028081E0917602F0917702C1
:1005F00082FD12C09081809179028F5F8F7320916C
:100600007A02821751F0E0917902F0E0E05AFD4F52
:10061000958F8093790201C08081FF91EF919F9126
:100620008F912F910F900FBE0F901F901895DC01A6
:10063000ED91FC910684F785E02D40E0099461E09E
:100640000E9417038BE39FE10197F1F708950F9341
:100650001F93CF93DF93EC01423018F08C818860B8
:100660008C834F836887222329F0413019F48C81D1
:1006700084608C8364E670E080E090E00E94C407B0
:100680006C8164FD31C0E881F9810684F785E02D35
:1006900042E063E0CE0109958BE496E40197F1F71F
:1006A000E881F9810684F785E02D42E063E0CE0120
:1006B000099503E512E0C8010197F1F7E881F98196
:1006C0000684F785E02D42E063E0CE010995C8017C
:1006D0000197F1F7E881F9810684F785E02D42E082
:1006E00062E0CE01099517C06062CE010E94170337
:1006F0008BE496E40197F1F76C816062CE010E9471
:10070000170303E512E0C8010197F1F76C816062FD
:10071000CE010E941703C8010197F1F76C81606256
:10072000CE010E9417038BEE90E00197F1F784E071
:100730008D836CE0CE010E941703CE010E941F033F
:1007400082E08E8366E0CE010E941703E881F98182
:100750000484F585E02D6FEFCE01DF91CF911F91DD
:100760000F910994EF92FF920F931F93CF93DF9312
:10077000EC01062FF42EE22E8B85888B10920E0250
:1007800010920D021092390210925B021092370201
:1007900011E0109336021092110261E082E10E9492
:1007A000590761E083E10E9459078091B9008E7F6B
:1007B0008093B9008091B9008D7F8093B90088E45F
:1007C0008093B80085E48093BC008CEA91E090931C
:1007D0000C0280930B028DEA91E090930A028093C1
:1007E000090288891093380280935A0210923902C4
:1007F00010925B020E94810691E0811190E0998B3A
:10080000811105C08DEF92E00E94FD018E878989DC
:10081000882339F01F861C8260E0CE010E960E946C
:10082000DD062E2D4F2D602FCE01DF91CF911F9130
:100830000F91FF90EF900C9427031F920F920FB629
:100840000F9211242F933F934F935F936F937F9356
:100850008F939F93AF93BF93EF93FF938091B900D2
:10086000887F803609F49CC068F5883209F45BC043
:1008700090F4803109F454C038F4882309F4F6C0A8
:10088000883009F44DC0F6C0883109F44CC080327C
:1008900009F45DC0EFC0803409F468C048F48033C7
:1008A00009F455C0883309F0E5C080933502D8C0FB
:1008B000803509F44FC0883509F45DC0883409F0EB
:1008C000D9C0D6C0883909F4C7C0A8F4883709F45C
:1008D00067C038F4883609F463C0803709F460C013
:1008E000C9C0883809F4B8C0803909F45FC08038BD
:1008F00009F0C0C05BC0803B09F486C038F4803A80
:1009000009F466C0883A09F47FC0B4C0803C09F499
:10091000A7C0883C09F4A4C0883B09F48AC0AAC0D7
:100920008091120210C09091340280913302981786
:1009300070F5E091340281E08E0F80933402F0E094
:10094000ED5EFD4F80818093BB0085EC86C0809377
:1009500035028EC0E091340281E08E0F8093340224
:100960008091BB00F0E0ED5EFD4F808390913402FA
:10097000809133026EC0E091340281E08E0F80934B
:1009800034028091BB00F0E0ED5EFD4F80838091EA
:10099000360281116DC081E08093110284EA61C04A
:1009A00083E08093370210920802CFCF8091080233
:1009B000803208F051C0E091080281E08E0F8093F0
:1009C00008028091BB00F0E0E851FE4F8083BDCF6C
:1009D00085EC8093BC00109237028091080280322F
:1009E00030F4E0910802F0E0E851FE4F108260918F
:1009F000080270E0E0910902F0910A0288EE91E0AD
:100A000009951092080236C084E080933702109254
:100A1000E7011092E601E0910B02F0910C020995BA
:100A20008091E601811105C081E08093E60110927A
:100A3000C601E091E70181E08E0F8093E701F0E0CD
:100A4000EA53FE4F80818093BB009091E701809133
:100A5000E601981708F479CF85E88093BC000AC0B6
:100A600085EC8093BC001092370204C010923502CE
:100A70000E94BB01FF91EF91BF91AF919F918F9128
:100A80007F916F915F914F913F912F910F900FBE8A
:100A90000F901F90189596E0899FD0011124A75FB1
:100AA000BC4F90967C936E935F9791E091969C9348
:100AB000919790917503E0917603F09177039923D4
:100AC00039F0309751F0811108C08091250304C09E
:100AD000309719F05C968C9109940895833081F0D9
:100AE00028F4813099F08230A1F008958730A9F080
:100AF0008830B9F08430D1F4809180008F7D03C0BC
:100B0000809180008F7780938000089584B58F77DF
:100B100002C084B58F7D84BD08958091B0008F7729
:100B200003C08091B0008F7D8093B00008953FB7DF
:100B3000F8948091920390919303A0919403B091C3
:100B4000950326B5A89B05C02F3F19F00196A11D5E
:100B5000B11D3FBFBA2FA92F982F8827820F911D53
:100B6000A11DB11DBC01CD0142E0660F771F881F9A
:100B7000991F4A95D1F70895009769F0FC010190FB
:100B80000020E9F73197AF01481B590BBC0188E7FA
:100B900093E00C948C0080E090E00895CF93DF9375
:100BA000CDB7DEB728970FB6F894DEBF0FBECDBF26
:100BB000409113015091140160911501709116013B
:100BC0004D835E836F8378874091170150911801A0
:100BD0006091190170911A0149835A836B837C8358
:100BE00020917F03821710F08FEF820F30918003E6
:100BF00090E0FE01E80FF91F303121F4243011F4A8
:100C0000618101C06581606888E793E028960FB62E
:100C1000F894DEBF0FBECDBFDF91CF910C941703C8
:100C2000CF92DF92EF92FF920F931F9396E0899FEE
:100C3000F0011124E75FFC4F11A2278D30A1213074
:100C4000310539F158F02230310509F447C023301D
:100C5000310509F04FC060E070E044C0662309F43C
:100C600049C061E070E00E944B052FB7F894809175
:100C70005C0290915D02A0915E02B0915F022FBF75
:100C80008093610390936203A0936303B093640322
:100C900031C09FB7F894C0905C02D0905D02E090A4
:100CA0005E02F0905F029FBF0091610310916203AA
:100CB0002091630330916403C01AD10AE20AF30A57
:100CC000009173031091740320E030E00C151D05B2
:100CD0002E053F0518F462E070E004C061110AC0FF
:100CE00063E070E01F910F91FF90EF90DF90CF9045
:100CF0000C944B051F910F91FF90EF90DF90CF90D8
:100D0000089530915B02313208F04BC08091370278
:100D10008111FCCF90915A0222E02093370221E00A
:100D2000209336022FEF2093350210923402309335
:100D30003302EAE3F2E0A3E1B2E020E0321721F06F
:100D400041914D932F5FFACF10921202209112021F
:100D5000990F922B9093120290911102913061F4AD
:100D600010921102909112029093BB009091BC00DE
:100D700093FDF8CF95EC01C095EE9093BC00909157
:100D800037029230E1F3909135029F3F79F08091E4
:100D90003502803241F080913502803331F084E0B9
:100DA00005C081E003C082E001C083E010923902F7
:100DB00010925B02109238020895FC0123812223D5
:100DC000B1F08181682B6083828191E09093380239
:100DD00080935A021092390210925B028DEF92E0DA
:100DE0000E9446020E948106282F30E002C020E0C7
:100DF00030E081E090E0232B11F080E090E0089556
:100E0000EF92FF920F931F93CF938C01FC0184E02C
:100E1000C0E060FF02C09589C92B6695815031966C
:100E20008111F7CF413011F4F8014489F80185852B
:100E3000C82BC42B7801FEE0EF0EF11CF80162898B
:100E40006C2BC7010E94DD06F801628960956C2356
:100E5000C701CF911F910F91FF90EF900C94DD0689
:100E6000CF93DF93282F30E0F901E255FF4F8491B3
:100E7000F901E656FF4FD491F901EA57FF4FC491AB
:100E8000CC2391F081110E946E05EC2FF0E0EE0F63
:100E9000FF1FE458FF4FA591B491EC91ED2381E041
:100EA00090E021F480E002C080E090E0DF91CF91FB
:100EB00008951F93CF93DF93282F30E0F901E25577
:100EC000FF4F8491F901E656FF4FD491F901EA579B
:100ED000FF4FC491CC23C1F0162F81110E946E05E3
:100EE000EC2FF0E0EE0FFF1FEE58FF4FA591B491ED
:100EF0009FB7F894111104C08C91D095D82302C0EB
:100F0000EC91DE2BDC939FBFDF91CF911F91089571
:100F1000CF93DF9390E0FC01E656FF4F2491FC0154
:100F2000EA57FF4F8491882361F190E0880F991F61
:100F3000FC01E859FF4FC591D491FC01EE58FF4FD9
:100F4000A591B491611109C09FB7F894888120954B
:100F500082238883EC912E230BC0623061F49FB70B
:100F6000F8948881322F309583238883EC912E2B3F
:100F70002C939FBF06C08FB7F894E8812E2B28834F
:100F80008FBFDF91CF9108958F929F92AF92BF92C2
:100F9000CF92DF92EF92FF926B017C010E94970546
:100FA0004B015C01C114D104E104F104F1F00E9491
:100FB0009705DC01CB0188199909AA09BB09883E6C
:100FC0009340A105B10570F321E0C21AD108E108F0
:100FD000F10888EE880E83E0981EA11CB11CC11494
:100FE000D104E104F10419F7DDCFFF90EF90DF9019
:100FF000CF90BF90AF909F908F9008951F920F92C7
:101000000FB60F9211242F933F938F939F93AF931B
:10101000BF9380915C0290915D02A0915E02B091BD
:101020005F023091910323E0230F2D3720F40196C6
:10103000A11DB11D05C026E8230F0296A11DB11DFB
:101040002093910380935C0290935D02A0935E02D3
:10105000B0935F028091920390919303A0919403C7
:10106000B09195030196A11DB11D809392039093B9
:101070009303A0939403B0939503BF91AF919F9175
:101080008F913F912F910F900FBE0F901F90189549
:10109000789484B5826084BD84B5816084BD85B553
:1010A000826085BD85B5816085BD80916E0081605F
:1010B00080936E0010928100809181008260809305
:1010C0008100809181008160809381008091800007
:1010D0008160809380008091B10084608093B10032
:1010E0008091B00081608093B00080917A0084602C
:1010F00080937A0080917A00826080937A00809158
:101100007A00816080937A0080917A008068809371
:101110007A001092C100E0917002F091710282E0B9
:101120008083E0916C02F0916D021082E0916E027A
:10113000F0916F028FEC808310927802E09174023C
:10114000F091750286E08083E0917202F091730263
:10115000808180618083E0917202F09173028081CE
:1011600088608083E0917202F091730280818068D0
:101170008083E0917202F091730280818F7D808381
:1011800061E08DE00E94880720E042E060E188E7AE
:1011900093E00E94B2036FEF88E793E00E94A502FC
:1011A00080E00E94CE058DE591E00E94BC0564EFD1
:1011B00071E080E090E00E94C40781E00E94CE05CB
:1011C0008EE691E00E94BC0568E873E180E090E063
:1011D0000E94C40788E793E00E941F03812C912C92
:1011E0005401839455E4C52E53E0D52E2224239434
:1011F000312C80910F02909110028130910509F4F9
:1012000053C168F0029709F05AC188E793E00E9441
:101210001F0381E00E94CE058FE991E04EC188E76F
:1012200093E00E941F0380E00E94CE058EE791E0CC
:101230000E94BC0581E00E94CE058FE891E00E94EB
:10124000BC0521E0209375038FB7F89440915C02B0
:1012500050915D0260915E0270915F028FBF80913C
:10126000650390916603A0916703B0916803481BE2
:10127000590B6A0B7B0B8091710390917203A0E074
:10128000B0E084179507A607B70708F0E8C0C0E0EC
:1012900080916F03C81710F0512C40C0E0916B0390
:1012A000F0916C03EC0FF11D62E080810E948807D1
:1012B000CF5FEECFC42DD0E0E0916B03F0916C03D3
:1012C000EC0FFD1F80810E9430072496CC0FDD1F9C
:1012D000C75FDC4F892B09F04BC088819981862933
:1012E000972999838883439480916F03481610F35C
:1012F000E0916D03F0916E03E00FF11F61E08081DA
:101300000E94590780916D0390916E03FC01E00FDC
:10131000F11F60E080810E948807539480917003E0
:10132000581658F5052D10E0E0916D03F0916E030D
:10133000E00FF11F61E080810E948807E0916D035A
:10134000F0916E03E00FF11F60E080810E94590769
:10135000D501C401052C04C0880F991FAA1FBB1F0B
:101360000A94D2F73C017C01E094F094412CBCCF6C
:10137000888199818E219F21B4CFC9E0D3E0FE01FD
:10138000878D90A1892B31F4148E8FEF9FEF968F6C
:10139000858F11A23696CE16DF0691F710E0809168
:1013A0006F03181770F500E0E12EF12CC701880FCC
:1013B000991FFC01EF5EFC4F7F0120917003021723
:1013C000F0F4F70140815181002E02C056954795F7
:1013D0000A94E2F7642F6170129F90011124200F8C
:1013E000311DE9E0F3E080E0A58DB68D2A173B07BB
:1013F00009F48CC08F5F36968A30B1F769C01F5FE1
:10140000CECF80E099A1911181E02696CC16DD0621
:10141000C9F79FB7F89440915C0250915D026091CA
:101420005E0270915F029FBF409365035093660315
:101430006093670370936803882389F080912A037F
:10144000882369F08091280390912903019739F44A
:10145000809125038A3201F5C4E0D0E003C01092E8
:1014600075031AC061E08DE00E94590762E370E0E5
:1014700080E090E00E94C40760E08DE00E94590780
:1014800062E370E080E090E00E94C407219751F78A
:101490003092100220920F0280910F029091100260
:1014A000892B09F4CECE0BC088E793E00E941F037E
:1014B00081E00E94CE0585E991E00E94BC056AEFBB
:1014C00070E080E090E00E94C4070E948E0191CEFF
:1014D00040FF1EC0E9E0F3E080E090E0448D411160
:1014E00019C0E0916903F0916A03E20FF31F708164
:1014F000F6E0F89FA001F99F500D1124FA01E75F73
:10150000FC4F748F368F258F10A2178E0E94100605
:101510000F5F53CF019636968A309105F9F6F8CFD2
:10152000109263021092620288EE93E0A0E0B0E0B5
:101530008093640290936502A0936602B093670261
:101540002FE131E0309361022093600225EC30E01E
:1015500030936D0220936C0224EC30E030936F02E4
:1015600020936E0220EC30E03093710220937002E1
:1015700021EC30E0309373022093720222EC30E0D1
:10158000309375022093740226EC30E0309377029A
:10159000209376021092790210927A0210927B02C6
:1015A00010927C02109200031092FF0280930103BC
:1015B00090930203A0930303B093040381E391E0AB
:1015C0009093FE028093FD0210927B0310927A03A7
:1015D0008DE491E0909379038093780310928803CF
:1015E0008FEF8093870310928603109289038FE315
:1015F00080938303109284031092850310928203D8
:101600001092810384E080938A0382E080938B03AD
:1016100081E080938C0380E180938D0380E280934E
:101620008E0380E480938F0380E88093900340E0F2
:1016300050E063E088E793E00E94980110920B036A
:1016400010920F0310920E031092100383E491E0A6
:1016500090930A0380930903E9E0F3E085E493E0C3
:10166000148E10A2178E11A236968E179F07C1F7FF
:1016700083E091E090936C0380936B0380E091E0B2
:1016800090936E0380936D0384E080936F0383E0F7
:101690008093700387E091E090936A0380936903DD
:1016A0008AE090E0909372038093710384EF91E05D
:1016B00090937403809373031092770310927603D0
:1016C00010926503109266031092670310926803EC
:1016D000109275030895EE0FFF1F0590F491E02D11
:1016E000099481E090E0F8940C94760BF894FFCF85
:1016F00006070802030405313233343536373839EA
:101700002A30230040145400401050000000001FF5
:10171000018C00B6006C01E700C500D90000000094
:1017200000460219027602ED011102FD01EE0100F0
:101730000000007D027902810200000000AE018CF1
:101740000076027502B2039801A50286025F5F5F10
:1017500020414C41524D205631205F5F5F004D6962
:101760006368616C20537A796D637A616B00416CB8
:1017700061726D20726F7A62726F6A6F6E79005754
:101780006369C59B00757A62726F6A6F6E790061DA
:061790006C61726D200087
:00000001FF
